:0300000002098171
:0C098100787FE4F6D8FD7581510209C8AA
:100BF800D4D4BED49FA9D4D4BED48E9FD4D46A7E74
:100C08009FA9BE77777E9F8E9F0009030C0C0C1856
:100C180009030C0C0C1809030C0C0C0C0C09030C24
:040C28000C0C180098
:100A6E000108000F3843757272656E742054696DFB
:100A7E0065202000100A536574204E657720546956
:100A8E006D652E2E2E00101C536574206E616F2026
:100A9E0054696D652E2E2E000A2D3E30303A3030C0
:100AAE003A303000014C0C014B1E014A0D01471E1D
:100B0B00120C79E4F509120ABF758901D2AF758C05
:100B1B003C758AB0D2A9D28CE5097008AB49AD4BB4
:100B2B00AF4C8006AB1AAD2CAF48120A0D12080061
:100B3B00E54CB54AE3E54BB547DEE549B51BD912A4
:040B4B0008F480D456
:100ABF007F82120B4FE5097012F54D7438254DF8F2
:100ACF00E6FF6037120B88054D80F0E509B401137E
:100ADF00E4F54D740A254DF8E6FF601F120B8805EB
:100AEF004D80F0E509B40213E4F54D741C254DF863
:0B0AFF00E6FF6007120B88054D80F039
:010B0A0022C8
:100A0D00E5097005752D208003752D3EEF75F00AF3
:100A1D00842430F52EEF75F00A84E5F02430F52F9F
:100A2D00ED75F00A842430F531ED75F00A84E5F0AA
:100A3D002430F532EB75F00A842430F534EB75F083
:100A4D000A84E5F02430F5357FC3120B4FE4F54FE2
:100A5D00742D254FF8E6FF6007120B88054F80F0C7
:010A6D002266
:1008000020902F7FE87E03120CB0209025E5097F11
:100810002C7E017011120C30854C48854B2C85497B
:100820001A7509018006120C306337FF120ABF30B7
:1008300090FD20912E7FE87E03120CB0209124E5DC
:1008400009601D120C2CE537700C0548E548B418FA
:100850000FE4F548800A052CE52CB43C03E4F52CA4
:100860003091FD20922C7FE87E03120CB020922262
:10087000E509601B120C2CE537700BE54870037519
:10088000481815488009E52C7003752C3C152C3050
:1008900092FD2093387FE87E03120CB020932BE565
:1008A00009B4010F120C2C85484C852C4B851A4934
:1008B000E4F509E509B4020F120C2C85484A852C91
:1008C00047851A1BE4F5093093FD120ABF209423D3
:1008D0007FE87E03120CB0209419E509700F120C0A
:1008E0002C750902854A4885472C851B1A120ABFB8
:0408F0003094FD2221
:040C2C007F2C7E019A
:040C30008E4D8F4E08
:100C3400E4F54FF550C3E550954EE54F954D5013EF
:100C4400B2B07F0A7E00120CB00550E55070E60584
:030C54004F80E2EC
:010C5700227A
:100C9200EF1FAA0670011E4A600DE4FDC3ED6480D9
:070CA20094F850EC0D80F501
:010CA9002228
:1008F400E4F54DF54E7412254EF582740C354DF524
:1009040083E493701074F8254EF582740B354DF51D
:1009140083E4936067E4FDFC7412254EF582740C45
:10092400354DF583E49375F01EA4FFC3ED9FEC955C
:10093400F0502EB2B0E4FFFE74F8254EF582740B2D
:10094400354DF583E4931313543FFBC3EF9BEE94AF
:100954000050070FBF00010E80DE0DBD00010C80AA
:10096400B77F0A7E00120C92054EE54E7002054DCB
:0C097400AB49AD4BAF4C120A0D0208F964
:010980002254
:03000B00020BC124
:100BC100C0E0C0D0758C3C758AB00508E508B41446
:100BD100057508000549E549B43C05754900054B13
:100BE100E54BB43C05754B00054CE54CB418037559
:070BF1004C00D0D0D0E0322F
:100C79007F3C120B4F7F0C120B4F7F01120B4F7FE2
:090C890006120B4F7F80020B4F95
:020B4F008F50C5
:100B5100120C588F515351807F027E00120CB0E568
:100B61005170EDC2A57F01FE120CB0C2A6120CACF1
:100B7100120CAA855080120CACC2A7120CACD2A5E3
:070B81007F027E00020CB0B0
:020B88008F508C
:100B8A00120C588F515351807F027E00120CB0E52F
:100B9A005170EDC2A57F01FE120CB0D2A6120CACA8
:100BAA00120CAA855080120CACC2A7120CACD2A5AA
:070BBA007F027E00020CB077
:060CAA00D2A77F017E00CD
:100CB000E4FDFCC3ED9FEC9E50070DBD00010C80D0
:010CC000F241
:010CC1002210
:100C5800D2A5120CACC2A6120CB0D2A7120CB0AB23
:100C680080120CB0C2A7120CB0C2A5120CB0AF0310
:010C78002259
:10098D00020B0BE493A3F8E493A34003F68001F26A
:10099D0008DFF48029E493A3F85407240CC8C3336B
:1009AD00C4540F4420C8834004F456800146F6DF3A
:1009BD00E4800B0102040810204080900A6EE47E52
:1009CD00019360BCA3FF543F30E509541FFEE4932F
:1009DD00A360010ECF54C025E060A840B8E493A3F6
:1009ED00FAE493A3F8E493A3C8C582C8CAC583CA21
:1009FD00F0A3C8C582C8CAC583CADFE9DEE780BED9
:010ABE000037
:00000001FF
